:1000000019C02BC02AC029C028C027C026C025C0BF
:1000100024C023C022C021C020C01FC01EC01DC0DC
:100020001CC01BC01AC019C018C017C016C015C00C
:1000300014C013C011241FBECFEFD2E0DEBFCDBF6E
:1000400011E0A0E0B1E0ECEEF7E002C005900D9207
:10005000A23BB107D9F7D9D2C7C3D2CF61E080E0C4
:1000600019D18AE091E0A9D080E188B92FEF81E130
:100070009AE7215080409040E1F700C0000018B896
:100080002FEF87EA91E6215080409040E1F700C0D1
:10009000000061E080E0FED08BE191E08ED080E254
:1000A00088B92FEF81E19AE7215080409040E1F735
:1000B00000C0000018B808958AB1807F8AB95E9A9E
:1000C0005D9800C000C05C9A00C000C089B18295F4
:1000D000807F00C000C05C9892E09A95F1F700C064
:1000E0005C9A00C000C099B100C000C05C9892E06A
:1000F0009A95F1F700C087FDE6CF5E988AB18F60D0
:100100008AB90895282F22952F708F70611102C02F
:100110005D9801C05D9A00C000C05C9A9BB1907F61
:10012000922B9BB992E09A95F1F700C05C9892E00F
:100130009A95F1F700C05C9A9BB1907F892B8BB99F
:1001400082E08A95F1F700C05C9892E09A95F1F709
:1001500000C0B2CFCF93DF931F92CDB7DEB7EFE5EC
:10016000FAEE3197F1F700C000009AB19F609AB99A
:10017000549A559A569A9BB1907F9BB95C985E9819
:100180005D9800C000005C9A599AF2E0FA95F1F788
:1001900000C05C9892E09A95F1F700C089838CDFEB
:1001A00060E089818C60AEDF60E088E2ABDF60E018
:1001B00080E80F90DF91CF91A5CF0F931F93CF933E
:1001C000DF93EC0188818823B1F0853271F48E01D0
:1001D0000F5F1F4F8981805361E0883020F085E2F6
:1001E00091DF61E089818EDF03C061E08BDF8E01EA
:1001F000E8012196E7CFDF91CF911F910F910895EC
:10020000EF92FF920F931F93CF93DF9300D000D014
:100210001F92CDB7DEB79B01AE014F5F5F4F7A01F2
:1002200045E0F70111924A95E9F7FE0136960AE09A
:1002300010E0009729F0B801B0D28293CB01F9CF3A
:100240002F3FFFEF3F0741F4F7018F010E191F0900
:1002500081918823D1F304C005E010E0021B130B49
:100260000E0D1F1DC8018E199F0905973CF4F8015A
:1002700081918F0161E0805D45DFF4CF0F900F9099
:100280000F900F900F90DF91CF911F910F91FF90E2
:10029000EF900895843170F4623031F0633031F0C2
:1002A000613029F4806403C08C5E01C08C5A60E028
:1002B000806828CF0895CF93C42FECDF8C2F8295D0
:1002C0008F708A3010F4805D01C0895C61E01ADFB4
:1002D000F3DE8C2F8F708A3010F4805D01C0895C52
:1002E00061E010DFCF91E8CECF93DF931F92CDB7BF
:1002F000DEB72A98880F8E77698381D16981862F2E
:100300007ED12A9A0F90DF91CF9108952A98880F75
:100310008E77806874D180E072D12A9A08956FE058
:1003200081E0E2CFFCDF6DE88AE2DEDF6EE38BE2A4
:10033000DBDF6EE18CE2D8DF60E08DE2D5DF60E4E8
:1003400085E1D2DF6DE381E1CFDF84E1DFDF982F4C
:10035000937021F4682F636084E1C6CF08952F92D3
:100360003F924F925F926F927F928F929F92AF9245
:10037000BF92CF92DF92EF92FF920F931F93CF9392
:10038000DF9300D01F92CDB7DEB7D82EC62E442EF5
:1003900079011B830A838CE0D81631F0EEE0DE167B
:1003A00031F000E010E005C000E317E702C000E113
:1003B00012E184E07983AADF682F6F7784E094DF0D
:1003C0008AE0A4DF682F60688AE08EDF60E081E069
:1003D0008BDF2C2C7981372E812C912C5401512CC0
:1003E000612C712C84149504A604B70458F4F1010F
:1003F00061911F0189E078DFFFEF8F1A9F0AAF0A32
:10040000BF0AF0CF6D2D81E06FDF8CE0D81206C0FF
:100410008DE07CDF682F60688DE066DF40ED842E24
:1004200047E0942EA12CB12C016084E06FDFC82E30
:10043000E1E08E1A9108A108B10819F0802F8C21F3
:10044000A1F38DE063DF682F6F778DE04DDF8928A2
:100450008A288B2811F413E04EC086E057DF8B7199
:10046000D1F711701C2111F012E001C011E0FCE085
:10047000DF1241C08AE04ADF082F8CE047DF282FD7
:100480002770802F90E049F0019733E0880F991F83
:100490003A95E1F7820F911D05C023E0880F991F5F
:1004A0002A95E1F7092E000CAA0BBB0BEA81FB8110
:1004B00080839183A283B383002321F0013118F05C
:1004C00000E101C001E03701812C912C5401C02EC4
:1004D000D12CE12CF12C8C149D04AE04BF0458F4F3
:1004E00089E014DFF30181933F01FFEF8F1A9F0A28
:1004F000AF0ABF0AF0CF812F0F900F900F90DF91BE
:10050000CF911F910F91FF90EF90DF90CF90BF9010
:10051000AF909F908F907F906F905F904F903F90A3
:100520002F900895EF92FF920F931F93CF93DF9335
:1005300000D000D0CDB7DEB7182F7B0167E08DE08B
:10054000D3DEF70110838E010F5F1F4F970141E04B
:10055000B7018CE004DF813049F449815A816B8115
:100560007C81403151056105710509F083E00F90F0
:100570000F900F900F90DF91CF911F910F91FF90EF
:10058000EF900895EF92FF920F931F93CF93DF9315
:1005900000D000D0CDB7DEB77C0160E08DE0A4DEF6
:1005A00083E9F701808380E281838E010F5F1F4F13
:1005B000970142E0B7018CE0D2DE813071F4F7019F
:1005C00097012C5F3F4F90E041919427E217F3078A
:1005D000D9F7F7012481921383E00F900F900F90C9
:1005E0000F90DF91CF911F910F91FF90EF900895A1
:1005F00084B18C6284B98CB581658CBD08958EBD43
:100600000DB407FEFDCF8EB50895CF93DF93CDB720
:10061000DEB76A970FB6F894DEBF0FBECDBF85E098
:10062000E0E0F1E0DE01569601900D928A95E1F747
:1006300085E0E5E0F1E0DE01519601900D928A95AA
:10064000E1F72FE788E391E0215080409040E1F707
:1006500000C0000081E07EDD60E082E01BDE8CE215
:1006600091E0ABDD61E085E015DE88E391E0A5DD9A
:1006700080E387B9BDDF56DEAFEFBEE924E2A150CB
:10068000B0402040E1F700C0000060E081E03ADDCA
:1006900087E33CDE823931F460E082E0FBDD8EE30B
:1006A00091E008C0805960E0823058F482E0F2DDC9
:1006B00086E591E082DD61E084E0ECDD8DE491E0AF
:1006C00004C080E0E7DD85E691E077DD8FEF9EE90D
:1006D000A4E281509040A040E1F700C0000060E03B
:1006E00081E010DD8E01055E1F4F60E081E00ADDD4
:1006F00060E081E0CFDD85E791E05FDDBE016F5F07
:100700007F4F82E50FDF813081F7CE0101963ADF1E
:10071000813069F5FE017696BE016F5F7F4FCB0198
:100720009F015191DC014D91CD0154130CC0E01794
:10073000F107B9F760E081E0E5DC60E083E0AADD85
:100740008AE891E01DC0FE0171969191DB018D91C7
:10075000BD01981318C0E217F307B9F760E081E014
:10076000D1DC60E083E096DD85E991E009C060E0DE
:1007700081E0C8DC60E085E08DDD84E891E00BC0BD
:100780001CDD6CDCB2CF60E081E0BCDC60E080E0CE
:1007900081DD81EA91E011DDA8CF97FB072E16F4E9
:1007A000009406D077FD08D00BD007FC05D03EF4AE
:1007B000909581959F4F0895709561957F4F08950D
:1007C000AA1BBB1B51E107C0AA1FBB1FA617B70777
:1007D00010F0A61BB70B881F991F5A95A9F7809593
:0C07E0009095BC01CD010895F894FFCF66
:1007EC003D21E4D32B0E65E2139A4F70656E696E52
:1007FC00672047617465202E2E2E00436C6F736941
:10080C006E672047617465202E2E2E005246494497
:10081C002052656164657200312E302E30004D49D6
:10082C00464152452052433532327632004465748B
:10083C006563746564004D49464152452052433509
:10084C0032327631004E6F207265616465722066BB
:10085C006F756E640053686F7720596F7572204303
:10086C00617264004572726F720048656C6C6F2027
:10087C00426C75650048656C6C6F205768697465CF
:10088C00004E6F74205265636F676E6973656420E8
:02089C00210039
:00000001FF
