:1000000019C020C01FC01EC01DC01CC01BC01AC00C
:1000100019C018C017C016C015C014C013C012C034
:1000200011C010C00FC00EC00DC00CC00BC00AC064
:1000300009C008C011241FBECFEFD2E0DEBFCDBF84
:100040002BD16CC1DDCF8AB1807F8AB95E9A5D9871
:1000500000C000C05C9A00C000C089B18295807F5A
:1000600000C000C05C9892E09A95F1F700C05C9ADD
:1000700000C000C099B100C000C05C9892E09A95A1
:10008000F1F700C087FDE6CF5E988AB18F608AB92C
:100090000895282F22952F708F70611102C05D98EE
:1000A00001C05D9A00C000C05C9A9BB1907F922B0A
:1000B0009BB992E09A95F1F700C05C9892E09A950E
:1000C000F1F700C05C9A9BB1907F982B9BB982E0BE
:1000D0008A95F1F700C05C9892E09A95F1F700C01C
:1000E000B2CFCF93DF931F92CDB7DEB7EFE5FAEE35
:1000F0003197F1F700C000009AB19F609AB9549A05
:10010000559A569A9BB1907F9BB95C985E985D9882
:1001100000C000005C9A599AF2E0FA95F1F700C02D
:100120005C9892E09A95F1F700C089838CDF60E0DB
:1001300089818C60AEDF60E088E2ABDF60E080E860
:100140000F90DF91CF91A5CF0F931F93CF93DF93A4
:10015000EC0116C0853279F48E010F5F1F4F898143
:10016000805361E0883008F404C085E292DF61E0EA
:1001700089818FDF03C061E08CDF8E01E801219669
:1001800088818111E7CFDF91CF911F910F91089561
:100190000F931F93CF93DF9300D000D01F92CDB762
:1001A000DEB79B01FE01319645E0DF011D924A95C5
:1001B000E9F7FE0136960AE010E004C0B80187D0E6
:1001C0008293CB010097D1F72F3FBFEF3B0751F44C
:1001D000FE013196CF018F01081B190B21912223BB
:1001E000D1F311C005E010E0021B130B0CC0E1E0DD
:1001F000F0E0EC0FFD1FE00FF11F808161E0805DFA
:1002000048DF0F5F1F4F053011058CF30F900F90E3
:100210000F900F900F90DF91CF911F910F91089544
:10022000843170F4623031F0633031F0613029F4A0
:10023000806403C08C5E01C08C5A60E0806829CF66
:100240000895CF93C42FECDF9C2F92959F70292F98
:1002500030E0892F2A30310514F4805D01C0895CBB
:1002600061E017DFF0DE8C2F8F70282F30E02A300E
:10027000310514F4805D01C0895C61E00ADFCF9133
:10028000E2CE8CE284B981E58CBD08958EBD0DB4BB
:1002900007FEFDCF8EB508952FE788E391E021504A
:1002A00080409040E1F700C00000EBDF80E02A983A
:1002B000C82FCF5FEBDF2A9A2FEF89E698E1215014
:1002C00080409040E1F700C000008C2FF0CF97FBFA
:1002D000072E16F4009406D077FD08D00BD007FC4B
:1002E00005D03EF4909581959F4F08957095619546
:1002F0007F4F0895AA1BBB1B51E107C0AA1FBB1F5C
:10030000A617B70710F0A61BB70B881F991F5A95A1
:10031000A9F780959095BC01CD010895F894FFCF81
:00000001FF
