:1000000019C033C032C031C030C02FC02EC02DC087
:100010002CC02BC02AC029C028C027C026C025C09C
:1000200024C023C022C021C020C01FC01EC01DC0CC
:100030001CC01BC011241FBECFEFD2E0DEBFCDBF5E
:1000400011E0A0E0B1E0EEE5F7E002C005900D920E
:10005000A635B107D9F711E0A6E5B1E001C01D92C0
:10006000A639B107E1F7B3D278C3CACF8AB1807F8E
:100070008AB95E9A5D9800C000C05C9A00C000C05A
:1000800089B18295807F00C000C05C9892E09A950B
:10009000F1F700C05C9A00C000C099B100C000C078
:1000A0005C9892E09A95F1F700C087FDE6CF5E98E4
:1000B0008AB18F608AB90895282F22952F708F708A
:1000C000611102C05D9801C05D9A00C000C05C9AD9
:1000D0009BB1907F922B9BB992E09A95F1F700C06B
:1000E0005C9892E09A95F1F700C05C9A9BB1907F82
:1000F000982B9BB982E08A95F1F700C05C9892E05A
:100100009A95F1F700C0B2CFCF93DF931F92CDB78E
:10011000DEB7EFE5FAEE3197F1F700C000009AB1D3
:100120009F609AB9549A559A569A9BB1907F9BB901
:100130005C985E985D9800C000005C9A599AF2E065
:10014000FA95F1F700C05C9892E09A95F1F700C03B
:1001500089838CDF60E089818C60AEDF60E088E2BB
:10016000ABDF60E080E80F90DF91CF91A5CF0F93D8
:100170001F93CF93DF93EC0116C0853279F48E0183
:100180000F5F1F4F8981805361E0883008F404C0FD
:1001900085E292DF61E089818FDF03C061E08CDF5F
:1001A0008E01E801219688818111E7CFDF91CF91FF
:1001B0001F910F9108950F931F93CF93DF9300D05A
:1001C00000D01F92CDB7DEB79B01FE01319645E00E
:1001D000DF011D924A95E9F7FE0136960AE010E02C
:1001E00004C0B80193D28293CB010097D1F72F3F7F
:1001F000BFEF3B0751F4FE013196CF018F01081B81
:10020000190B21912223D1F311C005E010E0021B4C
:10021000130B0CC0E1E0F0E0EC0FFD1FE00FF11F4D
:10022000808161E0805D48DF0F5F1F4F0530110561
:100230008CF30F900F900F900F900F90DF91CF9154
:100240001F910F910895843170F4623031F0633062
:1002500031F0613029F4806403C08C5E01C08C5A97
:1002600060E0806829CF0895CF93C42FECDF9C2FE6
:1002700092959F70292F30E0892F2A30310514F490
:10028000805D01C0895C61E017DFF0DE8C2F8F702C
:10029000282F30E02A30310514F4805D01C0895CDC
:1002A00061E00ADFCF91E2CECF93DF931F92CDB70B
:1002B000DEB72A98880F8E77698383D16981862F6C
:1002C00080D12A9A0F90DF91CF9108952A9890E0DB
:1002D000880F991F8E779927806873D180E071D13C
:1002E0002A9A08956FE081E0DFCFFCDF6DE88AE2B3
:1002F000DBDF6EE38BE2D8DF6EE18CE2D5DF60E01E
:100300008DE2D2DF60E485E1CFDF6DE381E1CCDF18
:1003100084E1DCDF982F937021F4682F636084E11F
:10032000C3CF08952F923F924F925F927F928F9208
:100330009F92AF92BF92CF92DF92EF92FF920F9374
:100340001F93CF93DF9300D01F92CDB7DEB7882ED7
:10035000F62E242E722E932E1B830A838C5083300C
:1003600050F490E0FC01E050FF4F1081FC01ED5F84
:10037000FE4F008102C000E010E084E07983A6DF38
:10038000682F6F7784E090DF8AE0A0DF682F6068D5
:100390008AE08ADF60E081E087DFAF2C7981B72EC9
:1003A000C12CD12C7601312C412C512C0AC0F501E5
:1003B00061915F0189E078DFFFEFCF1ADF0AEF0A72
:1003C000FF0AC214D304E404F50488F3682D81E025
:1003D0006BDF8CE0881206C08DE078DF682F6068E4
:1003E0008DE062DF70EDC72E77E0D72EE12CF12C87
:1003F00084E06CDFB82EE1E0CE1AD108E108F10804
:1004000021F080FD02C0802399F38DE05FDF682F2B
:100410006F778DE049DFCD28CE28CF2811F413E087
:1004200051C086E053DF8B71D1F711701B2111F49D
:1004300011E001C012E0FCE08F1244C08AE046DF08
:10044000082F8CE043DF8770202F30E0A90151F0A6
:100450004150510963E0440F551F6A95E1F7480F79
:10046000511D05C033E0440F551F3A95E1F766274B
:1004700057FD6095762FEA81FB814083518362832B
:100480007383002319F0013118F403C001E001C0A7
:1004900000E1472C592CC12CD12C7601802E912CB7
:1004A000A12CB12C0AC089E011DFF20181932F0148
:1004B000FFEFCF1ADF0AEF0AFF0AC814D904EA04D3
:1004C000FB0488F3812F0F900F900F90DF91CF9155
:1004D0001F910F91FF90EF90DF90CF90BF90AF9062
:1004E0009F908F907F905F904F903F902F900895B6
:1004F000EF92FF920F931F93CF93DF9300D000D022
:10050000CDB7DEB7182F7B0167E08DE0CDDEF701B8
:1005100010838E010F5F1F4F970141E0B7018CE000
:1005200001DF813051F449815A816B817C814031F6
:1005300051056105710509F401C083E00F900F902A
:100540000F900F90DF91CF911F910F91FF90EF903F
:100550000895EF92FF920F931F93CF93DF9300D0F4
:1005600000D0CDB7DEB77C0160E08DE09DDE83E991
:10057000F701808380E281838E010F5F1F4F970117
:1005800042E0B7018CE0CEDE813059F4F70124E07F
:1005900090E0319193272150E1F7F70124819213E4
:1005A00083E00F900F900F900F90DF91CF911F91EC
:1005B0000F91FF90EF9008958CE284B981E58CBD96
:1005C00008958EBD0DB407FEFDCF8EB50895CF936F
:1005D000DF93CDB7DEB760970FB6F894DEBF0FBEDE
:1005E000CDBF2FE788E391E0215080409040E1F7B4
:1005F00000C0000081E088DD60E082E024DE86E06B
:1006000091E0B5DD61E085E01EDE82E191E0AFDDE5
:10061000D3DFEFEFF9E628E1E150F0402040E1F7C9
:1006200000C0000060E081E047DD5FDE87E34EDE72
:10063000823931F460E082E006DE88E191E008C0B2
:10064000805960E0823058F482E0FDDD80E391E083
:100650008EDD61E084E0F7DD87E291E004C080E0B8
:10066000F2DD8FE391E083DD82E030DE682F6062AF
:1006700082E01ADE83E02ADE682F606883E014DE01
:100680008FEF9EE9E4E281509040E040E1F700C046
:10069000000060E081E010DDBE016F5F7F4F82E50A
:1006A00027DF182F482F60E080E0DEDD113021F5D4
:1006B000CE0101964EDF8130C9F48E010F5F1F4FCE
:1006C000F12CF80141918F0160E08F2DCDDDF39485
:1006D000F394F0E1FF12F5CF2FEF88E09DE3215076
:1006E00080409040E1F700C0000006C061E080E07B
:1006F000AADD8FE491E03BDDEFEFF9E628E1E15080
:10070000F0402040E1F700C00000C6CF97FB072E65
:1007100016F4009406D077FD08D00BD007FC05D066
:100720003EF4909581959F4F0895709561957F4F08
:100730000895AA1BBB1B51E107C0AA1FBB1FA61728
:10074000B70710F0A61BB70B881F991F5A95A9F77A
:0E07500080959095BC01CD010895F894FFCFDF
:10075E00770012300010524649442052656164659C
:10076E007200312E302E30004D49464152452052F6
:10077E0043353232763200446574656374656400C5
:10078E004D49464152452052433532327631004E64
:10079E006F2072656164657220666F756E640045C8
:0607AE0072726F72000080
:00000001FF
