:1000000019C033C032C031C030C02FC02EC02DC087
:100010002CC02BC02AC029C028C027C026C025C09C
:1000200024C023C022C021C020C01FC01EC01DC0CC
:100030001CC01BC011241FBECFEFD2E0DEBFCDBF5E
:1000400011E0A0E0B1E0EEE0F4E002C005900D9216
:10005000A232B107D9F711E0A2E2B1E001C01D92CE
:10006000A236B107E1F74DD1D0C1CACF8AB1807FA6
:100070008AB95E9A5D9800C000C05C9A00C000C05A
:1000800089B18295807F00C000C05C9892E09A950B
:10009000F1F700C05C9A00C000C099B100C000C078
:1000A0005C9892E09A95F1F700C087FDE6CF5E98E4
:1000B0008AB18F608AB90895282F22952F708F708A
:1000C000611102C05D9801C05D9A00C000C05C9AD9
:1000D0009BB1907F922B9BB992E09A95F1F700C06B
:1000E0005C9892E09A95F1F700C05C9A9BB1907F82
:1000F000982B9BB982E08A95F1F700C05C9892E05A
:100100009A95F1F700C0B2CFCF93DF931F92CDB78E
:10011000DEB7EFE5FAEE3197F1F700C000009AB1D3
:100120009F609AB9549A559A569A9BB1907F9BB901
:100130005C985E985D9800C000005C9A599AF2E065
:10014000FA95F1F700C05C9892E09A95F1F700C03B
:1001500089838CDF60E089818C60AEDF60E088E2BB
:10016000ABDF60E080E80F90DF91CF91A5CF0F93D8
:100170001F93CF93DF93EC0116C0853279F48E0183
:100180000F5F1F4F8981805361E0883008F404C0FD
:1001900085E292DF61E089818FDF03C061E08CDF5F
:1001A0008E01E801219688818111E7CFDF91CF91FF
:1001B0001F910F9108950F931F93CF93DF9300D05A
:1001C00000D01F92CDB7DEB79B01FE01319645E00E
:1001D000DF011D924A95E9F7FE0136960AE010E02C
:1001E00004C0B801EBD08293CB010097D1F72F3F29
:1001F000BFEF3B0751F4FE013196CF018F01081B81
:10020000190B21912223D1F311C005E010E0021B4C
:10021000130B0CC0E1E0F0E0EC0FFD1FE00FF11F4D
:10022000808161E0805D48DF0F5F1F4F0530110561
:100230008CF30F900F900F900F900F90DF91CF9154
:100240001F910F910895843170F4623031F0633062
:1002500031F0613029F4806403C08C5E01C08C5A97
:1002600060E0806829CF0895CF93C42FECDF9C2FE6
:1002700092959F70292F30E0892F2A30310514F490
:10028000805D01C0895C61E017DFF0DE8C2F8F702C
:10029000282F30E02A30310514F4805D01C0895CDC
:1002A00061E00ADFCF91E2CE0895CF93DF931F92F2
:1002B000CDB7DEB72A98880F8E7769831CD0698105
:1002C000862F19D02A9A0F90DF91CF9108952A98FE
:1002D00090E0880F991F8E77992780680CD080E076
:1002E0000AD02A9A08956FE081E0DFCF8CE284B9CA
:1002F00081E58CBD08958EBD0DB407FEFDCF8EB592
:1003000008952FE788E391E0215080409040E1F785
:1003100000C0000081E0F8DE60E082E094DF80E071
:1003200091E025DF61E085E08EDF8CE091E01FDF6A
:10033000DDDF2FEF89E698E1215080409040E1F722
:1003400000C0000060E081E0B7DE60E080E07BDFBD
:1003500082E191E00CDFC7DFC9E160E089E0A5DF61
:10036000C150D9F761E081E0A0DF69E086E39DDF5D
:1003700060E089E09ADF63E081E097DF2FEF84E3BC
:100380009CE0215080409040E1F700C00000C2E2B4
:10039000D1E089E09CDF8993482F60E08EE064DF44
:1003A0002FEF8EE994E2215080409040E1F700C0A9
:1003B000000021E0C236D20761F7FFCF97FB072E7E
:1003C00016F4009406D077FD08D00BD007FC05D0BA
:1003D0003EF4909581959F4F0895709561957F4F5C
:1003E0000895AA1BBB1B51E107C0AA1FBB1FA6177C
:1003F000B70710F0A61BB70B881F991F5A95A9F7CE
:0E04000080959095BC01CD010895F894FFCF32
:10040E00524649442052656164657200312E302E89
:10041E0030004649464F2044617461203A203078BE
:02042E000000CC
:00000001FF
